{
  "address": "0x3Bb86178942fd2E6c02f150601b885c3344Cc64e",
  "abi": [
    {
      "inputs": [
        {
          "internalType": "enum Bridge.BridgeType",
          "name": "_bridgeType",
          "type": "uint8"
        }
      ],
      "name": "BridgeContractNotSet",
      "type": "error"
    },
    {
      "inputs": [
        {
          "internalType": "uint32",
          "name": "_destinationChainId",
          "type": "uint32"
        }
      ],
      "name": "DestinationChainNotSupported",
      "type": "error"
    },
    {
      "inputs": [
        {
          "internalType": "uint32",
          "name": "_fee",
          "type": "uint32"
        }
      ],
      "name": "FeeOutOfBounds",
      "type": "error"
    },
    {
      "inputs": [],
      "name": "InvalidBridgeType",
      "type": "error"
    },
    {
      "inputs": [
        {
          "internalType": "uint256",
          "name": "_length1",
          "type": "uint256"
        },
        {
          "internalType": "uint256",
          "name": "_length2",
          "type": "uint256"
        }
      ],
      "name": "LengthsMustMatch",
      "type": "error"
    },
    {
      "anonymous": false,
      "inputs": [
        {
          "indexed": false,
          "internalType": "uint8",
          "name": "version",
          "type": "uint8"
        }
      ],
      "name": "Initialized",
      "type": "event"
    },
    {
      "anonymous": false,
      "inputs": [
        {
          "indexed": true,
          "internalType": "address",
          "name": "previousOwner",
          "type": "address"
        },
        {
          "indexed": true,
          "internalType": "address",
          "name": "newOwner",
          "type": "address"
        }
      ],
      "name": "OwnershipTransferStarted",
      "type": "event"
    },
    {
      "anonymous": false,
      "inputs": [
        {
          "indexed": true,
          "internalType": "address",
          "name": "previousOwner",
          "type": "address"
        },
        {
          "indexed": true,
          "internalType": "address",
          "name": "newOwner",
          "type": "address"
        }
      ],
      "name": "OwnershipTransferred",
      "type": "event"
    },
    {
      "anonymous": false,
      "inputs": [
        {
          "indexed": false,
          "internalType": "address",
          "name": "account",
          "type": "address"
        }
      ],
      "name": "Paused",
      "type": "event"
    },
    {
      "anonymous": false,
      "inputs": [
        {
          "indexed": false,
          "internalType": "address",
          "name": "account",
          "type": "address"
        }
      ],
      "name": "Unpaused",
      "type": "event"
    },
    {
      "inputs": [],
      "name": "acceptOwnership",
      "outputs": [],
      "stateMutability": "nonpayable",
      "type": "function"
    },
    {
      "inputs": [
        {
          "internalType": "enum Bridge.BridgeType",
          "name": "",
          "type": "uint8"
        }
      ],
      "name": "bridges",
      "outputs": [
        {
          "internalType": "address",
          "name": "",
          "type": "address"
        }
      ],
      "stateMutability": "view",
      "type": "function"
    },
    {
      "inputs": [
        {
          "internalType": "uint32",
          "name": "",
          "type": "uint32"
        }
      ],
      "name": "connextChainIdToDomain",
      "outputs": [
        {
          "internalType": "uint32",
          "name": "",
          "type": "uint32"
        }
      ],
      "stateMutability": "view",
      "type": "function"
    },
    {
      "inputs": [],
      "name": "fee",
      "outputs": [
        {
          "internalType": "uint32",
          "name": "",
          "type": "uint32"
        }
      ],
      "stateMutability": "view",
      "type": "function"
    },
    {
      "inputs": [
        {
          "internalType": "uint32",
          "name": "_fee",
          "type": "uint32"
        },
        {
          "internalType": "enum Bridge.BridgeType[]",
          "name": "_bridgeTypes",
          "type": "uint8[]"
        },
        {
          "internalType": "address[]",
          "name": "_bridges",
          "type": "address[]"
        }
      ],
      "name": "initialize",
      "outputs": [],
      "stateMutability": "nonpayable",
      "type": "function"
    },
    {
      "inputs": [],
      "name": "owner",
      "outputs": [
        {
          "internalType": "address",
          "name": "",
          "type": "address"
        }
      ],
      "stateMutability": "view",
      "type": "function"
    },
    {
      "inputs": [],
      "name": "paused",
      "outputs": [
        {
          "internalType": "bool",
          "name": "",
          "type": "bool"
        }
      ],
      "stateMutability": "view",
      "type": "function"
    },
    {
      "inputs": [],
      "name": "pendingOwner",
      "outputs": [
        {
          "internalType": "address",
          "name": "",
          "type": "address"
        }
      ],
      "stateMutability": "view",
      "type": "function"
    },
    {
      "inputs": [],
      "name": "renounceOwnership",
      "outputs": [],
      "stateMutability": "nonpayable",
      "type": "function"
    },
    {
      "inputs": [
        {
          "internalType": "address",
          "name": "_token",
          "type": "address"
        },
        {
          "internalType": "address",
          "name": "_recipient",
          "type": "address"
        },
        {
          "internalType": "uint32",
          "name": "_destinationChainId",
          "type": "uint32"
        },
        {
          "internalType": "uint256",
          "name": "_amount",
          "type": "uint256"
        },
        {
          "internalType": "bytes",
          "name": "_data",
          "type": "bytes"
        },
        {
          "internalType": "enum Bridge.BridgeType",
          "name": "_bridgeType",
          "type": "uint8"
        },
        {
          "internalType": "bytes",
          "name": "_extraData",
          "type": "bytes"
        }
      ],
      "name": "sendThroughBridge",
      "outputs": [],
      "stateMutability": "payable",
      "type": "function"
    },
    {
      "inputs": [
        {
          "internalType": "enum Bridge.BridgeType",
          "name": "_bridgeType",
          "type": "uint8"
        },
        {
          "internalType": "address",
          "name": "_bridge",
          "type": "address"
        }
      ],
      "name": "setBridge",
      "outputs": [],
      "stateMutability": "nonpayable",
      "type": "function"
    },
    {
      "inputs": [
        {
          "internalType": "uint32[]",
          "name": "_chainId",
          "type": "uint32[]"
        },
        {
          "internalType": "uint32[]",
          "name": "_connextDomain",
          "type": "uint32[]"
        }
      ],
      "name": "setDomains",
      "outputs": [],
      "stateMutability": "nonpayable",
      "type": "function"
    },
    {
      "inputs": [
        {
          "internalType": "uint32",
          "name": "_fee",
          "type": "uint32"
        }
      ],
      "name": "setFee",
      "outputs": [],
      "stateMutability": "nonpayable",
      "type": "function"
    },
    {
      "inputs": [
        {
          "internalType": "address",
          "name": "newOwner",
          "type": "address"
        }
      ],
      "name": "transferOwnership",
      "outputs": [],
      "stateMutability": "nonpayable",
      "type": "function"
    },
    {
      "inputs": [
        {
          "internalType": "address",
          "name": "_token",
          "type": "address"
        },
        {
          "internalType": "address",
          "name": "_recipient",
          "type": "address"
        },
        {
          "internalType": "uint256",
          "name": "_amount",
          "type": "uint256"
        }
      ],
      "name": "withdraw",
      "outputs": [],
      "stateMutability": "nonpayable",
      "type": "function"
    }
  ],
  "transactionHash": "0x03907d332211b01247c0321bba4859c9f9e5dbbd951b29be0fd6e917f6784110",
  "args": [],
  "numDeployments": 1,
  "solcInputHash": "db6ebfe580f39d1fc3be9c4b67a50404",
  "bytecode": "0x608060405234801561001057600080fd5b50612d3e806100206000396000f3fe6080604052600436106100e85760003560e01c8063750269fd1161008a578063dc4efdd011610059578063dc4efdd014610297578063ddca3f43146102d4578063e30c3978146102ff578063f2fde38b1461032a576100e8565b8063750269fd1461021057806379ba50971461022c5780638da5cb5b14610243578063d9caed121461026e576100e8565b80635c975abb116100c65780635c975abb1461016857806365d67c3314610193578063708669f9146101d0578063715018a6146101f9576100e8565b80630da85f38146100ed5780631ab971ab146101165780631cc2db331461013f575b600080fd5b3480156100f957600080fd5b50610114600480360381019061010f9190611b7f565b610353565b005b34801561012257600080fd5b5061013d60048036038101906101389190611c14565b610944565b005b34801561014b57600080fd5b5061016660048036038101906101619190611cc4565b6109ce565b005b34801561017457600080fd5b5061017d610a50565b60405161018a9190611d1f565b60405180910390f35b34801561019f57600080fd5b506101ba60048036038101906101b59190611d3a565b610a67565b6040516101c79190611d76565b60405180910390f35b3480156101dc57600080fd5b506101f760048036038101906101f29190611ee0565b610a9a565b005b34801561020557600080fd5b5061020e610b82565b005b61022a60048036038101906102259190611fe4565b610b96565b005b34801561023857600080fd5b50610241610c68565b005b34801561024f57600080fd5b50610258610cf5565b6040516102659190611d76565b60405180910390f35b34801561027a57600080fd5b50610295600480360381019061029091906120c6565b610d1f565b005b3480156102a357600080fd5b506102be60048036038101906102b99190611c14565b610d47565b6040516102cb9190612128565b60405180910390f35b3480156102e057600080fd5b506102e9610d6a565b6040516102f69190612128565b60405180910390f35b34801561030b57600080fd5b50610314610d80565b6040516103219190611d76565b60405180910390f35b34801561033657600080fd5b50610351600480360381019061034c9190612143565b610daa565b005b60008060019054906101000a900460ff161590508080156103845750600160008054906101000a900460ff1660ff16105b806103b1575061039330610e57565b1580156103b05750600160008054906101000a900460ff1660ff16145b5b6103f0576040517f08c379a00000000000000000000000000000000000000000000000000000000081526004016103e7906121f3565b60405180910390fd5b60016000806101000a81548160ff021916908360ff160217905550801561042d576001600060016101000a81548160ff0219169083151502179055505b610435610e7a565b61043d610ed3565b610445610f2c565b6127108663ffffffff16111561049257856040517ff5a6c8090000000000000000000000000000000000000000000000000000000081526004016104899190612128565b60405180910390fd5b8560fb60006101000a81548163ffffffff021916908363ffffffff1602179055508282905085859050146105055784849050838390506040517f1b8a7b260000000000000000000000000000000000000000000000000000000081526004016104fc929190612222565b60405180910390fd5b60005b858590508110156105ea578383828181106105265761052561224b565b5b905060200201602081019061053b9190612143565b60fc60008888858181106105525761055161224b565b5b90506020020160208101906105679190611d3a565b60008111156105795761057861227a565b5b600081111561058b5761058a61227a565b5b815260200190815260200160002060006101000a81548173ffffffffffffffffffffffffffffffffffffffff021916908373ffffffffffffffffffffffffffffffffffffffff16021790555080806105e2906122d8565b915050610508565b506000600667ffffffffffffffff81111561060857610607611da2565b5b6040519080825280602002602001820160405280156106365781602001602082028036833780820191505090505b50905060018160008151811061064f5761064e61224b565b5b602002602001019063ffffffff16908163ffffffff1681525050600a8160018151811061067f5761067e61224b565b5b602002602001019063ffffffff16908163ffffffff16815250506038816002815181106106af576106ae61224b565b5b602002602001019063ffffffff16908163ffffffff16815250506064816003815181106106df576106de61224b565b5b602002602001019063ffffffff16908163ffffffff168152505060898160048151811061070f5761070e61224b565b5b602002602001019063ffffffff16908163ffffffff168152505061a4b1816005815181106107405761073f61224b565b5b602002602001019063ffffffff16908163ffffffff16815250506000600667ffffffffffffffff81111561077757610776611da2565b5b6040519080825280602002602001820160405280156107a55781602001602082028036833780820191505090505b50905062657468816000815181106107c0576107bf61224b565b5b602002602001019063ffffffff16908163ffffffff1681525050636f707469816001815181106107f3576107f261224b565b5b602002602001019063ffffffff16908163ffffffff168152505062626e62816002815181106108255761082461224b565b5b602002602001019063ffffffff16908163ffffffff168152505062676e6f816003815181106108575761085661224b565b5b602002602001019063ffffffff16908163ffffffff168152505063706f6c798160048151811061088a5761088961224b565b5b602002602001019063ffffffff16908163ffffffff1681525050636172626f816005815181106108bd576108bc61224b565b5b602002602001019063ffffffff16908163ffffffff16815250506108e18282610a9a565b5050801561093c5760008060016101000a81548160ff0219169083151502179055507f7f26b83ff96e1f2b6a682f133852f6798a09c465da95921460cefb384740249860016040516109339190612372565b60405180910390a15b505050505050565b61094c610f85565b60008163ffffffff16108061096857506127108163ffffffff16115b156109aa57806040517ff5a6c8090000000000000000000000000000000000000000000000000000000081526004016109a19190612128565b60405180910390fd5b8060fb60006101000a81548163ffffffff021916908363ffffffff16021790555050565b6109d6610f85565b8060fc60008460008111156109ee576109ed61227a565b5b6000811115610a00576109ff61227a565b5b815260200190815260200160002060006101000a81548173ffffffffffffffffffffffffffffffffffffffff021916908373ffffffffffffffffffffffffffffffffffffffff1602179055505050565b6000609760009054906101000a900460ff16905090565b60fc6020528060005260406000206000915054906101000a900473ffffffffffffffffffffffffffffffffffffffff1681565b610aa2610f85565b8051825114610aec57815181516040517f1b8a7b26000000000000000000000000000000000000000000000000000000008152600401610ae3929190612222565b60405180910390fd5b60005b8251811015610b7d57818181518110610b0b57610b0a61224b565b5b602002602001015160fd6000858481518110610b2a57610b2961224b565b5b602002602001015163ffffffff1663ffffffff16815260200190815260200160002060006101000a81548163ffffffff021916908363ffffffff1602179055508080610b75906122d8565b915050610aef565b505050565b610b8a610f85565b610b946000611003565b565b610b9e611034565b610baa8933308961107e565b600061271060fb60009054906101000a900463ffffffff1663ffffffff1688610bd3919061238d565b610bdd91906123fe565b87610be8919061242f565b9050600080811115610bfd57610bfc61227a565b5b846000811115610c1057610c0f61227a565b5b03610c2a57610c258a8a8a848a8a8989611107565b610c5c565b6040517f511b184900000000000000000000000000000000000000000000000000000000815260040160405180910390fd5b50505050505050505050565b6000610c726113e0565b90508073ffffffffffffffffffffffffffffffffffffffff16610c93610d80565b73ffffffffffffffffffffffffffffffffffffffff1614610ce9576040517f08c379a0000000000000000000000000000000000000000000000000000000008152600401610ce0906124d5565b60405180910390fd5b610cf281611003565b50565b6000603360009054906101000a900473ffffffffffffffffffffffffffffffffffffffff16905090565b610d276113e8565b610d2f610f85565b610d3a838383611437565b610d426114bd565b505050565b60fd6020528060005260406000206000915054906101000a900463ffffffff1681565b60fb60009054906101000a900463ffffffff1681565b6000606560009054906101000a900473ffffffffffffffffffffffffffffffffffffffff16905090565b610db2610f85565b80606560006101000a81548173ffffffffffffffffffffffffffffffffffffffff021916908373ffffffffffffffffffffffffffffffffffffffff1602179055508073ffffffffffffffffffffffffffffffffffffffff16610e12610cf5565b73ffffffffffffffffffffffffffffffffffffffff167f38d16b8cac22d99fc7c124b9cd0de2d3fa1faef420bfe791d8c362d765e2270060405160405180910390a350565b6000808273ffffffffffffffffffffffffffffffffffffffff163b119050919050565b600060019054906101000a900460ff16610ec9576040517f08c379a0000000000000000000000000000000000000000000000000000000008152600401610ec090612567565b60405180910390fd5b610ed16114c7565b565b600060019054906101000a900460ff16610f22576040517f08c379a0000000000000000000000000000000000000000000000000000000008152600401610f1990612567565b60405180910390fd5b610f2a611533565b565b600060019054906101000a900460ff16610f7b576040517f08c379a0000000000000000000000000000000000000000000000000000000008152600401610f7290612567565b60405180910390fd5b610f83611594565b565b610f8d6113e0565b73ffffffffffffffffffffffffffffffffffffffff16610fab610cf5565b73ffffffffffffffffffffffffffffffffffffffff1614611001576040517f08c379a0000000000000000000000000000000000000000000000000000000008152600401610ff8906125d3565b60405180910390fd5b565b606560006101000a81549073ffffffffffffffffffffffffffffffffffffffff0219169055611031816115ed565b50565b61103c610a50565b1561107c576040517f08c379a00000000000000000000000000000000000000000000000000000000081526004016110739061263f565b60405180910390fd5b565b611101846323b872dd60e01b85858560405160240161109f9392919061265f565b604051602081830303815290604052907bffffffffffffffffffffffffffffffffffffffffffffffffffffffff19166020820180517bffffffffffffffffffffffffffffffffffffffffffffffffffffffff83818316178352505050506116b3565b50505050565b600073ffffffffffffffffffffffffffffffffffffffff1660fc60008060008111156111365761113561227a565b5b60008111156111485761114761227a565b5b815260200190815260200160002060009054906101000a900473ffffffffffffffffffffffffffffffffffffffff1673ffffffffffffffffffffffffffffffffffffffff16036111d05760006040517f312aa5770000000000000000000000000000000000000000000000000000000081526004016111c791906126de565b60405180910390fd5b600060fd60008863ffffffff1663ffffffff16815260200190815260200160002060009054906101000a900463ffffffff1663ffffffff160361124a57856040517fdb030f3d0000000000000000000000000000000000000000000000000000000081526004016112419190612128565b60405180910390fd5b6112ac8860fc60008060008111156112655761126461227a565b5b60008111156112775761127661227a565b5b815260200190815260200160002060009054906101000a900473ffffffffffffffffffffffffffffffffffffffff168761177b565b60008083838101906112be9190612737565b9150915060fc60008060008111156112d9576112d861227a565b5b60008111156112eb576112ea61227a565b5b815260200190815260200160002060009054906101000a900473ffffffffffffffffffffffffffffffffffffffff1673ffffffffffffffffffffffffffffffffffffffff16638aac16ba3460fd60008c63ffffffff1663ffffffff16815260200190815260200160002060009054906101000a900463ffffffff168c8e878d888e8e6040518a63ffffffff1660e01b81526004016113909897969594939291906127c4565b60206040518083038185885af11580156113ae573d6000803e3d6000fd5b50505050506040513d601f19601f820116820180604052508101906113d39190612872565b5050505050505050505050565b600033905090565b600260c9540361142d576040517f08c379a0000000000000000000000000000000000000000000000000000000008152600401611424906128eb565b60405180910390fd5b600260c981905550565b6114b88363a9059cbb60e01b848460405160240161145692919061290b565b604051602081830303815290604052907bffffffffffffffffffffffffffffffffffffffffffffffffffffffff19166020820180517bffffffffffffffffffffffffffffffffffffffffffffffffffffffff83818316178352505050506116b3565b505050565b600160c981905550565b600060019054906101000a900460ff16611516576040517f08c379a000000000000000000000000000000000000000000000000000000000815260040161150d90612567565b60405180910390fd5b6000609760006101000a81548160ff021916908315150217905550565b600060019054906101000a900460ff16611582576040517f08c379a000000000000000000000000000000000000000000000000000000000815260040161157990612567565b60405180910390fd5b61159261158d6113e0565b611003565b565b600060019054906101000a900460ff166115e3576040517f08c379a00000000000000000000000000000000000000000000000000000000081526004016115da90612567565b60405180910390fd5b600160c981905550565b6000603360009054906101000a900473ffffffffffffffffffffffffffffffffffffffff16905081603360006101000a81548173ffffffffffffffffffffffffffffffffffffffff021916908373ffffffffffffffffffffffffffffffffffffffff1602179055508173ffffffffffffffffffffffffffffffffffffffff168173ffffffffffffffffffffffffffffffffffffffff167f8be0079c531659141344cd1fd0a4f28419497f9722a3daafe3b4186f6b6457e060405160405180910390a35050565b6000611715826040518060400160405280602081526020017f5361666545524332303a206c6f772d6c6576656c2063616c6c206661696c65648152508573ffffffffffffffffffffffffffffffffffffffff166118ca9092919063ffffffff16565b90506000815114806117375750808060200190518101906117369190612960565b5b611776576040517f08c379a000000000000000000000000000000000000000000000000000000000815260040161176d906129ff565b60405180910390fd5b505050565b6000811480611805575060008373ffffffffffffffffffffffffffffffffffffffff1663dd62ed3e30856040518363ffffffff1660e01b81526004016117c2929190612a1f565b602060405180830381865afa1580156117df573d6000803e3d6000fd5b505050506040513d601f19601f820116820180604052508101906118039190612a5d565b145b611844576040517f08c379a000000000000000000000000000000000000000000000000000000000815260040161183b90612afc565b60405180910390fd5b6118c58363095ea7b360e01b848460405160240161186392919061290b565b604051602081830303815290604052907bffffffffffffffffffffffffffffffffffffffffffffffffffffffff19166020820180517bffffffffffffffffffffffffffffffffffffffffffffffffffffffff83818316178352505050506116b3565b505050565b60606118d984846000856118e2565b90509392505050565b606082471015611927576040517f08c379a000000000000000000000000000000000000000000000000000000000815260040161191e90612b8e565b60405180910390fd5b6000808673ffffffffffffffffffffffffffffffffffffffff1685876040516119509190612c1f565b60006040518083038185875af1925050503d806000811461198d576040519150601f19603f3d011682016040523d82523d6000602084013e611992565b606091505b50915091506119a3878383876119af565b92505050949350505050565b60608315611a11576000835103611a09576119c985610e57565b611a08576040517f08c379a00000000000000000000000000000000000000000000000000000000081526004016119ff90612c82565b60405180910390fd5b5b829050611a1c565b611a1b8383611a24565b5b949350505050565b600082511115611a375781518083602001fd5b806040517f08c379a0000000000000000000000000000000000000000000000000000000008152600401611a6b9190612ce6565b60405180910390fd5b6000604051905090565b600080fd5b600080fd5b600063ffffffff82169050919050565b611aa181611a88565b8114611aac57600080fd5b50565b600081359050611abe81611a98565b92915050565b600080fd5b600080fd5b600080fd5b60008083601f840112611ae957611ae8611ac4565b5b8235905067ffffffffffffffff811115611b0657611b05611ac9565b5b602083019150836020820283011115611b2257611b21611ace565b5b9250929050565b60008083601f840112611b3f57611b3e611ac4565b5b8235905067ffffffffffffffff811115611b5c57611b5b611ac9565b5b602083019150836020820283011115611b7857611b77611ace565b5b9250929050565b600080600080600060608688031215611b9b57611b9a611a7e565b5b6000611ba988828901611aaf565b955050602086013567ffffffffffffffff811115611bca57611bc9611a83565b5b611bd688828901611ad3565b9450945050604086013567ffffffffffffffff811115611bf957611bf8611a83565b5b611c0588828901611b29565b92509250509295509295909350565b600060208284031215611c2a57611c29611a7e565b5b6000611c3884828501611aaf565b91505092915050565b60018110611c4e57600080fd5b50565b600081359050611c6081611c41565b92915050565b600073ffffffffffffffffffffffffffffffffffffffff82169050919050565b6000611c9182611c66565b9050919050565b611ca181611c86565b8114611cac57600080fd5b50565b600081359050611cbe81611c98565b92915050565b60008060408385031215611cdb57611cda611a7e565b5b6000611ce985828601611c51565b9250506020611cfa85828601611caf565b9150509250929050565b60008115159050919050565b611d1981611d04565b82525050565b6000602082019050611d346000830184611d10565b92915050565b600060208284031215611d5057611d4f611a7e565b5b6000611d5e84828501611c51565b91505092915050565b611d7081611c86565b82525050565b6000602082019050611d8b6000830184611d67565b92915050565b6000601f19601f8301169050919050565b7f4e487b7100000000000000000000000000000000000000000000000000000000600052604160045260246000fd5b611dda82611d91565b810181811067ffffffffffffffff82111715611df957611df8611da2565b5b80604052505050565b6000611e0c611a74565b9050611e188282611dd1565b919050565b600067ffffffffffffffff821115611e3857611e37611da2565b5b602082029050602081019050919050565b6000611e5c611e5784611e1d565b611e02565b90508083825260208201905060208402830185811115611e7f57611e7e611ace565b5b835b81811015611ea85780611e948882611aaf565b845260208401935050602081019050611e81565b5050509392505050565b600082601f830112611ec757611ec6611ac4565b5b8135611ed7848260208601611e49565b91505092915050565b60008060408385031215611ef757611ef6611a7e565b5b600083013567ffffffffffffffff811115611f1557611f14611a83565b5b611f2185828601611eb2565b925050602083013567ffffffffffffffff811115611f4257611f41611a83565b5b611f4e85828601611eb2565b9150509250929050565b6000819050919050565b611f6b81611f58565b8114611f7657600080fd5b50565b600081359050611f8881611f62565b92915050565b60008083601f840112611fa457611fa3611ac4565b5b8235905067ffffffffffffffff811115611fc157611fc0611ac9565b5b602083019150836001820283011115611fdd57611fdc611ace565b5b9250929050565b600080600080600080600080600060e08a8c03121561200657612005611a7e565b5b60006120148c828d01611caf565b99505060206120258c828d01611caf565b98505060406120368c828d01611aaf565b97505060606120478c828d01611f79565b96505060808a013567ffffffffffffffff81111561206857612067611a83565b5b6120748c828d01611f8e565b955095505060a06120878c828d01611c51565b93505060c08a013567ffffffffffffffff8111156120a8576120a7611a83565b5b6120b48c828d01611f8e565b92509250509295985092959850929598565b6000806000606084860312156120df576120de611a7e565b5b60006120ed86828701611caf565b93505060206120fe86828701611caf565b925050604061210f86828701611f79565b9150509250925092565b61212281611a88565b82525050565b600060208201905061213d6000830184612119565b92915050565b60006020828403121561215957612158611a7e565b5b600061216784828501611caf565b91505092915050565b600082825260208201905092915050565b7f496e697469616c697a61626c653a20636f6e747261637420697320616c72656160008201527f647920696e697469616c697a6564000000000000000000000000000000000000602082015250565b60006121dd602e83612170565b91506121e882612181565b604082019050919050565b6000602082019050818103600083015261220c816121d0565b9050919050565b61221c81611f58565b82525050565b60006040820190506122376000830185612213565b6122446020830184612213565b9392505050565b7f4e487b7100000000000000000000000000000000000000000000000000000000600052603260045260246000fd5b7f4e487b7100000000000000000000000000000000000000000000000000000000600052602160045260246000fd5b7f4e487b7100000000000000000000000000000000000000000000000000000000600052601160045260246000fd5b60006122e382611f58565b91507fffffffffffffffffffffffffffffffffffffffffffffffffffffffffffffffff8203612315576123146122a9565b5b600182019050919050565b6000819050919050565b600060ff82169050919050565b6000819050919050565b600061235c61235761235284612320565b612337565b61232a565b9050919050565b61236c81612341565b82525050565b60006020820190506123876000830184612363565b92915050565b600061239882611f58565b91506123a383611f58565b92508282026123b181611f58565b915082820484148315176123c8576123c76122a9565b5b5092915050565b7f4e487b7100000000000000000000000000000000000000000000000000000000600052601260045260246000fd5b600061240982611f58565b915061241483611f58565b925082612424576124236123cf565b5b828204905092915050565b600061243a82611f58565b915061244583611f58565b925082820390508181111561245d5761245c6122a9565b5b92915050565b7f4f776e61626c6532537465703a2063616c6c6572206973206e6f74207468652060008201527f6e6577206f776e65720000000000000000000000000000000000000000000000602082015250565b60006124bf602983612170565b91506124ca82612463565b604082019050919050565b600060208201905081810360008301526124ee816124b2565b9050919050565b7f496e697469616c697a61626c653a20636f6e7472616374206973206e6f74206960008201527f6e697469616c697a696e67000000000000000000000000000000000000000000602082015250565b6000612551602b83612170565b915061255c826124f5565b604082019050919050565b6000602082019050818103600083015261258081612544565b9050919050565b7f4f776e61626c653a2063616c6c6572206973206e6f7420746865206f776e6572600082015250565b60006125bd602083612170565b91506125c882612587565b602082019050919050565b600060208201905081810360008301526125ec816125b0565b9050919050565b7f5061757361626c653a2070617573656400000000000000000000000000000000600082015250565b6000612629601083612170565b9150612634826125f3565b602082019050919050565b600060208201905081810360008301526126588161261c565b9050919050565b60006060820190506126746000830186611d67565b6126816020830185611d67565b61268e6040830184612213565b949350505050565b600181106126a7576126a661227a565b5b50565b60008190506126b882612696565b919050565b60006126c8826126aa565b9050919050565b6126d8816126bd565b82525050565b60006020820190506126f360008301846126cf565b92915050565b600061270482611c66565b9050919050565b612714816126f9565b811461271f57600080fd5b50565b6000813590506127318161270b565b92915050565b6000806040838503121561274e5761274d611a7e565b5b600061275c85828601612722565b925050602061276d85828601611f79565b9150509250929050565b600082825260208201905092915050565b82818337600083830152505050565b60006127a38385612777565b93506127b0838584612788565b6127b983611d91565b840190509392505050565b600060e0820190506127d9600083018b612119565b6127e6602083018a611d67565b6127f36040830189611d67565b6128006060830188611d67565b61280d6080830187612213565b61281a60a0830186612213565b81810360c083015261282d818486612797565b90509998505050505050505050565b6000819050919050565b61284f8161283c565b811461285a57600080fd5b50565b60008151905061286c81612846565b92915050565b60006020828403121561288857612887611a7e565b5b60006128968482850161285d565b91505092915050565b7f5265656e7472616e637947756172643a207265656e7472616e742063616c6c00600082015250565b60006128d5601f83612170565b91506128e08261289f565b602082019050919050565b60006020820190508181036000830152612904816128c8565b9050919050565b60006040820190506129206000830185611d67565b61292d6020830184612213565b9392505050565b61293d81611d04565b811461294857600080fd5b50565b60008151905061295a81612934565b92915050565b60006020828403121561297657612975611a7e565b5b60006129848482850161294b565b91505092915050565b7f5361666545524332303a204552433230206f7065726174696f6e20646964206e60008201527f6f74207375636365656400000000000000000000000000000000000000000000602082015250565b60006129e9602a83612170565b91506129f48261298d565b604082019050919050565b60006020820190508181036000830152612a18816129dc565b9050919050565b6000604082019050612a346000830185611d67565b612a416020830184611d67565b9392505050565b600081519050612a5781611f62565b92915050565b600060208284031215612a7357612a72611a7e565b5b6000612a8184828501612a48565b91505092915050565b7f5361666545524332303a20617070726f76652066726f6d206e6f6e2d7a65726f60008201527f20746f206e6f6e2d7a65726f20616c6c6f77616e636500000000000000000000602082015250565b6000612ae6603683612170565b9150612af182612a8a565b604082019050919050565b60006020820190508181036000830152612b1581612ad9565b9050919050565b7f416464726573733a20696e73756666696369656e742062616c616e636520666f60008201527f722063616c6c0000000000000000000000000000000000000000000000000000602082015250565b6000612b78602683612170565b9150612b8382612b1c565b604082019050919050565b60006020820190508181036000830152612ba781612b6b565b9050919050565b600081519050919050565b600081905092915050565b60005b83811015612be2578082015181840152602081019050612bc7565b60008484015250505050565b6000612bf982612bae565b612c038185612bb9565b9350612c13818560208601612bc4565b80840191505092915050565b6000612c2b8284612bee565b915081905092915050565b7f416464726573733a2063616c6c20746f206e6f6e2d636f6e7472616374000000600082015250565b6000612c6c601d83612170565b9150612c7782612c36565b602082019050919050565b60006020820190508181036000830152612c9b81612c5f565b9050919050565b600081519050919050565b6000612cb882612ca2565b612cc28185612170565b9350612cd2818560208601612bc4565b612cdb81611d91565b840191505092915050565b60006020820190508181036000830152612d008184612cad565b90509291505056fea2646970667358221220e731a081829d854dceb46e29bf6f30108a5e79412b8607a678596835eb7a87bf64736f6c63430008130033",
  "devdoc": {
    "events": {
      "Initialized(uint8)": {
        "details": "Triggered when the contract has been initialized or reinitialized."
      },
      "Paused(address)": {
        "details": "Emitted when the pause is triggered by `account`."
      },
      "Unpaused(address)": {
        "details": "Emitted when the pause is lifted by `account`."
      }
    },
    "kind": "dev",
    "methods": {
      "acceptOwnership()": {
        "details": "The new owner accepts the ownership transfer."
      },
      "owner()": {
        "details": "Returns the address of the current owner."
      },
      "paused()": {
        "details": "Returns true if the contract is paused, and false otherwise."
      },
      "pendingOwner()": {
        "details": "Returns the address of the pending owner."
      },
      "renounceOwnership()": {
        "details": "Leaves the contract without owner. It will not be possible to call `onlyOwner` functions. Can only be called by the current owner. NOTE: Renouncing ownership will leave the contract without an owner, thereby disabling any functionality that is only available to the owner."
      },
      "transferOwnership(address)": {
        "details": "Starts the ownership transfer of the contract to a new account. Replaces the pending transfer if there is one. Can only be called by the current owner."
      }
    },
    "version": 1
  },
  "userdoc": {
    "kind": "user",
    "methods": {},
    "version": 1
  },
  "storageLayout": {
    "storage": [
      {
        "astId": 585,
        "contract": "src/Bridge.sol:Bridge",
        "label": "_initialized",
        "offset": 0,
        "slot": "0",
        "type": "t_uint8"
      },
      {
        "astId": 588,
        "contract": "src/Bridge.sol:Bridge",
        "label": "_initializing",
        "offset": 1,
        "slot": "0",
        "type": "t_bool"
      },
      {
        "astId": 1819,
        "contract": "src/Bridge.sol:Bridge",
        "label": "__gap",
        "offset": 0,
        "slot": "1",
        "type": "t_array(t_uint256)50_storage"
      },
      {
        "astId": 457,
        "contract": "src/Bridge.sol:Bridge",
        "label": "_owner",
        "offset": 0,
        "slot": "51",
        "type": "t_address"
      },
      {
        "astId": 577,
        "contract": "src/Bridge.sol:Bridge",
        "label": "__gap",
        "offset": 0,
        "slot": "52",
        "type": "t_array(t_uint256)49_storage"
      },
      {
        "astId": 366,
        "contract": "src/Bridge.sol:Bridge",
        "label": "_pendingOwner",
        "offset": 0,
        "slot": "101",
        "type": "t_address"
      },
      {
        "astId": 445,
        "contract": "src/Bridge.sol:Bridge",
        "label": "__gap",
        "offset": 0,
        "slot": "102",
        "type": "t_array(t_uint256)49_storage"
      },
      {
        "astId": 768,
        "contract": "src/Bridge.sol:Bridge",
        "label": "_paused",
        "offset": 0,
        "slot": "151",
        "type": "t_bool"
      },
      {
        "astId": 873,
        "contract": "src/Bridge.sol:Bridge",
        "label": "__gap",
        "offset": 0,
        "slot": "152",
        "type": "t_array(t_uint256)49_storage"
      },
      {
        "astId": 888,
        "contract": "src/Bridge.sol:Bridge",
        "label": "_status",
        "offset": 0,
        "slot": "201",
        "type": "t_uint256"
      },
      {
        "astId": 957,
        "contract": "src/Bridge.sol:Bridge",
        "label": "__gap",
        "offset": 0,
        "slot": "202",
        "type": "t_array(t_uint256)49_storage"
      },
      {
        "astId": 1867,
        "contract": "src/Bridge.sol:Bridge",
        "label": "fee",
        "offset": 0,
        "slot": "251",
        "type": "t_uint32"
      },
      {
        "astId": 1874,
        "contract": "src/Bridge.sol:Bridge",
        "label": "bridges",
        "offset": 0,
        "slot": "252",
        "type": "t_mapping(t_enum(BridgeType)1869,t_address)"
      },
      {
        "astId": 1878,
        "contract": "src/Bridge.sol:Bridge",
        "label": "connextChainIdToDomain",
        "offset": 0,
        "slot": "253",
        "type": "t_mapping(t_uint32,t_uint32)"
      },
      {
        "astId": 2325,
        "contract": "src/Bridge.sol:Bridge",
        "label": "__GAP",
        "offset": 0,
        "slot": "254",
        "type": "t_array(t_uint256)49_storage"
      }
    ],
    "types": {
      "t_address": {
        "encoding": "inplace",
        "label": "address",
        "numberOfBytes": "20"
      },
      "t_array(t_uint256)49_storage": {
        "base": "t_uint256",
        "encoding": "inplace",
        "label": "uint256[49]",
        "numberOfBytes": "1568"
      },
      "t_array(t_uint256)50_storage": {
        "base": "t_uint256",
        "encoding": "inplace",
        "label": "uint256[50]",
        "numberOfBytes": "1600"
      },
      "t_bool": {
        "encoding": "inplace",
        "label": "bool",
        "numberOfBytes": "1"
      },
      "t_enum(BridgeType)1869": {
        "encoding": "inplace",
        "label": "enum Bridge.BridgeType",
        "numberOfBytes": "1"
      },
      "t_mapping(t_enum(BridgeType)1869,t_address)": {
        "encoding": "mapping",
        "key": "t_enum(BridgeType)1869",
        "label": "mapping(enum Bridge.BridgeType => address)",
        "numberOfBytes": "32",
        "value": "t_address"
      },
      "t_mapping(t_uint32,t_uint32)": {
        "encoding": "mapping",
        "key": "t_uint32",
        "label": "mapping(uint32 => uint32)",
        "numberOfBytes": "32",
        "value": "t_uint32"
      },
      "t_uint256": {
        "encoding": "inplace",
        "label": "uint256",
        "numberOfBytes": "32"
      },
      "t_uint32": {
        "encoding": "inplace",
        "label": "uint32",
        "numberOfBytes": "4"
      },
      "t_uint8": {
        "encoding": "inplace",
        "label": "uint8",
        "numberOfBytes": "1"
      }
    }
  }
}